:020000040800F2
:10000000A80400204901000803160008051500088F
:1000100001160008F5060008FF17000800000000A0
:1000200000000000000000000000000007160008AB
:1000300091080008000000000516000821160008BD
:100040006301000863010008630100086301000800
:1000500063010008630100086301000863010008F0
:1000600063010008630100086301000863010008E0
:1000700063010008630100086301000863010008D0
:1000800063010008630100086301000863010008C0
:1000900063010008630100086301000863010008B0
:1000A00063010008630100086301000863010008A0
:1000B0006301000863010008630100086301000890
:1000C0006301000863010008630100086301000880
:1000D0006301000863010008630100086301000870
:1000E0006301000863010008630100086301000860
:1000F0006301000863010008630100086301000850
:10010000630100086301000863010008630100083F
:10011000630100086301000863010008630100082F
:10012000630100086301000863010008630100081F
:10013000DFF810D000F04EFA0048004739210008DF
:10014000AFF30080A8040020064880470648004717
:10015000FEE7FEE7FEE7FEE7FEE7FEE7FEE7FEE777
:10016000FEE7FEE78316000831010008202A04DBC1
:10017000203A21FA02F00021704721FA02F3D04020
:10018000C2F120029140084319467047D2B201E003
:1001900000F8012B491EFBD270470022F6E710B58C
:1001A00013460A4604461946FFF7F0FF204610BDE5
:1001B000421E12F8013F002BFBD111F8013B02F85F
:1001C000013B002BF9D17047421C10F8011B00299C
:1001D000FBD1801A704730B50B4601460020202223
:1001E000012409E021FA02F59D4205D303FA02F544
:1001F000491B04FA02F52844151EA2F10102F1DCA4
:1002000030BD2DE9F05F0546002092469B468846AA
:100210000646814640241BE0284641464746224682
:10022000FFF7A4FF53465A46C01A914110D3114616
:100230001846224600F0E0F92D1A67EB01084F46F8
:1002400022460120002100F0D7F917EB00094E41AA
:10025000201EA4F10104DFDC484631462A4643460D
:10026000BDE8F09F2DE9FE4F804681EA0300C00FF4
:100270000C46009021F0004123F00045B8EB02004D
:10028000A94105D24046214690461C460B460246EF
:1002900023F00040104347D0270DC7F30A00C3F3F3
:1002A0000A510290401A019040286BDAC3F3130000
:1002B00040F4801B0098924620B10023D2EB030A41
:1002C00063EB0B0B01985946C0F14002504600F019
:1002D00093F906460D4650465946019A00F09BF99F
:1002E00010EB08006141002487EA115284EAE773A9
:1002F0001A4340D0009A62B3019A012A4FEA07528A
:1003000015DC001B61EB02014FF0004202EA0752CC
:10031000CDE90042001C41F5801132462B4600F029
:100320009BF903B0BDE8F08F40462146F9E7001B7A
:1003300061EB0201001C41F5801300185B4120189D
:10034000A2F5001747EB030140EAD570B6196D41DD
:1003500011E06D084FEA360645EAC0754FEA0752CC
:10036000001B61EB0201001C41F5801149084FEAB6
:1003700030000019514132462B4603B0BDE8F04F22
:1003800000F05BB90098012240000023D0EB02028C
:1003900063EBE073009821464FEAE074B8EB00008D
:1003A00061EB0401E9E783F000435BE781F0004182
:1003B00058E72DE9FE4F81EA030404F0004421F0E0
:1003C000004100944FF0000B23F0004350EA010479
:1003D0005ED052EA03045BD0C3F30A54C1F30A555A
:1003E0002C44A4F2F3340194A0FB0254C1F3130192
:1003F00041F48011C3F3130343F4801301FB02445F
:1004000000FB034E840A970A44EA815447EA835763
:10041000A4FB076802958D0A05FB07854FEA932C1C
:1004200004FB0C542705029D4FEA065847EA16378D
:10043000B5EB08056EEB070C870E920E47EA8117A5
:1004400042EA8312A7FB0201B6EB0B0164EB000446
:100450002B0D43EA0C335E1844EB1C50DA46514630
:10046000E7FB0201C5F313044FEA0B3343EA1453CD
:100470004FEA0432019C43EA0603A4F10C040294FF
:10048000009CCDE900B400F0E7F803B0BDE8F08FC0
:1004900000200146F9E72DE9F04D81EA030404F05C
:1004A000004B21F0004514464FF0000A23F00041B4
:1004B00050EA050220D054EA01021DD0C5F30A57C4
:1004C0000246C5F31303C1F31300C1F30A5640F407
:1004D000801543F48013A7EB0608101BD64608F2DC
:1004E000FD3873EB050002D308F1010801E0921812
:1004F0005B41B8F1000F03DA00200146BDE8F08D42
:1005000000204FF48011064684460EE0171B73EB63
:10051000050705D3121B63EB050306434CEA010CE8
:1005200049084FEA300092185B4150EA0107EDD1CB
:1005300052EA030012D082EA040083EA050108436C
:1005400005D0101BAB4106D20122002306E0002299
:100550004FF0004302E06FF0010253101AEB060067
:100560004CEB085110EB0A0041EB0B01BDE8F04DDC
:1005700000F063B8C1F30A52C1F3130140F2FF3334
:1005800041F480119A4202DA00200146704740F29D
:1005900033439A42A2F2334202DC5242FFF7E6BDF5
:1005A00000F02AB830B5041E71F1000404DB4FF0EE
:1005B0000044404264EB0101141E73F1000405DBAA
:1005C0001C464FF00043524263EB0403994208BFBC
:1005D000904230BD064C074D06E0E06840F0010354
:1005E00094E8070098471034AC42F6D3FFF7A4FD17
:1005F000DC230008FC230008202A04DB203A00FA50
:1006000002F1002070479140C2F1200320FA03F369
:10061000194390407047202A06DBCB17203A41FA55
:1006200002F043EAE07306E041FA02F3D040C2F17F
:100630002002914008431946704710B5141E73F10B
:10064000000408DA401C41F1000192185B411A4392
:1006500001D120F0010010BD2DE9F04D92469B46DE
:1006600011B1B1FA81F202E0B0FA80F22032904684
:10067000FFF7C2FF04460F4640EA0A0041EA0B01B9
:1006800053465A46084313D0114653EA010019D085
:10069000C8F140025046FFF769FD05460E46504638
:1006A00059464246FFF7A8FF084305D0012004E061
:1006B00020463946BDE8F08D0020054346EAE07645
:1006C0002C4337430A986305E40AA0EB0800002294
:1006D000FD0A44EA47540A3002D500200146E9E702
:1006E000010510196941DDE9084500196941BDE8B6
:1006F000F04DA2E7FEE7000070B50024204600F0B0
:1007000031F8134D04E0641CE4B2012001F002FD55
:100710004021284600F0FEFA10B1642CF3D30FE01C
:10072000642C0DD2002404E0641CE4B2012001F02A
:10073000F1FC4021284600F0EDFA18B1642C04D3F6
:10074000012070BD642CEFD3FAE7002070BD0000DB
:100750000008014010B500F081F8BDE81040FFF737
:10076000CBBF00001FB500210091019102910391C0
:100770004021012805D000916946054800F0CEF9D6
:100780001FBD0120CDE9001002200390F4E7000016
:100790000008014070B50024134D04E0641CE4B26D
:1007A000012001F0B7FC4021284600F0B3FA08B15F
:1007B000642CF3D3002404E0641CE4B2012001F0B3
:1007C000A9FC4021284600F0A5FA08B9642CF3D30F
:1007D000282001F09FFC4021284600F09BFA0028C9
:1007E00000D0012070BD00000008014070B500205D
:1007F00004464006050EFFF7CDFF641C2843E4B213
:10080000082CF6D370BD00002DE9FC410D460646CC
:1008100000F024F8FFF770FFE8B900244FEA0D0755
:10082000FFF7E4FF3855641CE4B2052CF8D39DF8BB
:1008300000109DF801009DF803300A189DF8020091
:1008400003441A449DF804309A4204D12970307050
:100850000020BDE8FC810120FBE7000010B501206D
:10086000FFF780FF094C00224021204600F05FFA8C
:10087000142000F041F901224021204600F057FAEF
:10088000BDE810401E2001F045BC000000080140FA
:100890007047000070B5294C29A120602E4801F056
:1008A000DFFC4FF4FA65284600F026F92BA12068FA
:1008B00001F0D6FC6E10304600F01EF929A1206828
:1008C00001F0CEFC304600F017F928A1206801F0B5
:1008D000C7FC304600F010F927A1206801F0C0FCE9
:1008E00041F2883000F008F92B4B2CA234A120688B
:1008F00001F0B6FC284600F0FFF83CA247A12068B2
:1009000001F0AEFC40F6B83000F0F6F849A257A16D
:10091000206801F0A5FC680000F0EEF85AA35BA285
:1009200062A1206801F09CFC304600F0E5F8BDE8CB
:10093000704067A1084801F093BC0000040000204B
:10094000496E697469616C697A696E6720455350B4
:10095000383236362E2E2E001800002041542B52ED
:1009600053540000415445300000000041542B43D3
:10097000574D4F44453D330041542B43574A415056
:100980003D227669766F20783830222C22616263AE
:100990003132333435220000982300083639363797
:1009A00034333462323564643231363862366666E6
:1009B000656162645F6A697568757369000000004B
:1009C00041542B4D515454555345524346473D30A5
:1009D0002C312C224E554C4C222C222573222C22B9
:1009E0002573222C302C302C222200003639363749
:1009F0003433346232356464323136386236666696
:100A0000656162645F6A6975687573695F305F30DC
:100A10005F323032363031313530370041542B4D72
:100A2000515454434C49454E5449443D302C2225A1
:100A300073220000346366623535396566332E698A
:100A40006F7464612D6465766963652E636E2D73C2
:100A50006F7574682D342E6D79687561776569637B
:100A60006C6F75642E636F6D0000000041542B4D58
:100A7000515454434F4E4E3D302C222573222C317D
:100A80003838332C310000007368000036393637AF
:100A900034333462323564643231363862366666F5
:100AA000656162645F6875696900000041542B4D9F
:100AB0005154545355423D302C222F25732F25730A
:100AC0002F757365722F676574222C31000000004A
:100AD0004553503832363620496E697469616C6905
:100AE0007A6174696F6E20436F6D706C65746521F7
:100AF0000000000072B6FEE770B5044600F01CF975
:100B00000546601C02D004480078044400F014F943
:100B1000401BA042FAD370BD080000202DE9F84F19
:100B2000DFF8C8910024A9F1040B23460F2709F12F
:100B3000040AABF1040ED1E00125A54006EA050246
:100B4000AA4276D1DFF8A8C14E68A6EB0C0866452C
:100B50002BD00DDC032E34D005DC36B3012E19D09A
:100B6000022E2FD11BE0112E16D0122E2AD119E001
:100B7000B8F5881F19D006DCB8F5803F15D0B8F558
:100B8000801F1FD111E0B8F5001F0ED0B8F5041F6B
:100B900018D10AE0CB6815E0CB681B1D12E0CB68CA
:100BA00008330FE0CB680C330CE08B682BB1012BC2
:100BB0004FF0080303D0456104E0042302E005611F
:100BC00000E00023FF2A01D8064601E000F10406F8
:100BD0004FEA840501D9A5F12005D6F8008007FA6F
:100BE00005FC28EA0C0803FA05F548EA0508C6F8EA
:100BF00000804D68ED0070D53E4DAE6946F00106AF
:100C0000AE61AD6924F0030605F0010500953A4D8B
:100C100006EB050CDCF80850A607360F07FA06F8B5
:100C200025EA0805DFF8D480404503D14FF00008DD
:100C300025E052E0DFF8C880404502D14FF00108BE
:100C40001DE0DFF8C080404502D14FF0020816E0F9
:100C5000DFF8B480404502D14FF003080FE0DFF821
:100C6000AC80404502D14FF0040808E0DFF8A080D6
:100C7000404502D14FF0050801E04FF0060808FAA0
:100C800006F848EA0508CCF808804D68D9F80060F5
:100C9000ED024D4601D5164300E096432E604D68A7
:100CA000DAF80060AD02554601D5164300E09643E0
:100CB0002E604D68DBF80060AD035D4601D516433C
:100CC00000E096432E604D68DEF80060ED03754647
:100CD00001D5164300E096432E60641C0A68164650
:100CE000E2407FF429AFBDE8F88F0000080401401E
:100CF00000001110001002400000014000080140F7
:100D0000000C014000100140001401400018014097
:100D1000001C01408068084000D001207047C26874
:100D200021EA02030A4043EA0241016170470AB125
:100D3000016170470904FBE70148806870470000C3
:100D400008000020024881680278114481607047E1
:100D500008000020074810B5016841F0100101604B
:100D6000032000F05FF80F2000F006F800F024F8F0
:100D7000002010BD0020024070B50D4D04464FF418
:100D80007A712878B1FBF0F00A490968B1FBF0F0FC
:100D900000F0CCFA48B9102C07D200222146501E90
:100DA00000F020F800206C6070BD012070BD0000D4
:100DB0000800002014000020094808B5816941F0AE
:100DC00001018161816901F001010091C16941F076
:100DD0008051C161C06900F08050009008BD0000E2
:100DE00000100240F0B40E4B1B680C46C3F3022304
:100DF000C3F10705042D00D90425191D072901D2C7
:100E0000002300E0DB1E012606FA05F1491E214001
:100E100099409E40761E16403143F0BC00F00ABD5A
:100E20000CED00E0064900F0070208684FF6FF03EA
:100E3000184040EA0220034A10430860704700004F
:100E40000CED00E00000FA052DE9F0470F46050023
:100E500061D0434E306800F00700B84209D23068D4
:100E600020F0070038433060306800F00700B842D7
:100E700051D128683B4C810712D5400703D56068E3
:100E800040F4E06060602878000703D5606840F4B3
:100E9000605060606068A96820F0F00008436060FE
:100EA0002878C00728D06868012810D02168022857
:100EB00010D0890700292EDA616821F0030101436F
:100EC0006160FFF739FF804641F288390DE0216803
:100ED0008903EFE78901EDE7FFF72EFFA0EB08019B
:100EE000494502D90320BDE8F0876068696800F0D1
:100EF0000C00B0EB810FEFD1306800F00700B84272
:100F00000BD9306820F0070038433060306800F0BB
:100F10000700B84201D00120E5E72878400705D551
:100F20006068E96820F4E0600843606028780007A2
:100F300006D56068296920F4605040EAC10060600D
:100F400000F03EF86168084AC1F30311515CC840E3
:100F50000649086006480068FFF70EFF0020C2E758
:100F60000020024000100240BA22000814000020B5
:100F70000C000020014800687047000014000020A9
:100F80000448054900684968044AC1F30221515CDC
:100F9000C84070471400002000100240CA22000818
:100FA0000448054900684968044AC1F3C221515CFC
:100FB000C84070471400002000100240CA220008F8
:100FC0000E4A51680E4801F00C03042B11D0082B77
:100FD0000FD10C48C1F38343C903C05C0AD55168E3
:100FE000084AC1F34041921E515C054A5043B0FB90
:100FF000F1F0704704494843704700000010024078
:1010000000127A00AA22000800093D002DE9F84FDD
:10101000040070D02078C04DC00749D06868C0F384
:101020008100012807D06868C0F38100022809D137
:101030006868C00306D52868800339D56068002831
:10104000E7D035E06068B0F5803F0BD010B1B0F567
:10105000A02F11D0286820F480302860286820F460
:10106000802002E0286840F480302860606890B1F9
:10107000FFF762FE06460AE0286840F480202860F8
:10108000F0E700BFFFF758FE801B642873D828687C
:101090008003F7D50CE0FFF74FFE064605E000BFE2
:1010A000FFF74AFE801B6428F0D828688003F7D435
:1010B00020789A4E80074FF001094FF0000839D58B
:1010C000686810F00C0F07D06868C0F38100022830
:1010D00009D16868C00306D42868800714D5206940
:1010E000012808D110E02069B0B1C6F80090FFF7E0
:1010F00023FE074605E00AE1FFF71EFEC01B02289B
:10110000C4D828688007F7D52868616920F0F800FE
:1011100040EAC10028600DE0C6F80080FFF70CFE31
:10112000074604E0FFF708FEC01B022823D8286802
:101130008007F7D4207800072CD57948A169D9B168
:10114000C0F80090FFF7F8FD074604E0FFF7F4FD54
:10115000C01B02280FD8686A8007F7D571484FF482
:10116000FA510068B0FBF1F0009000BF0098411EFA
:101170000091FAD20EE080E0C0F80080FFF7DCFDBD
:10118000074604E0FFF7D8FDC01B022875D8686A3F
:101190008007F7D42078400760D5E8690027C000B1
:1011A00008D4E86940F08050E861E869012700F060
:1011B000805000905C480168C90513D401688346DB
:1011C00041F480710160FFF7B7FD824606E000BF81
:1011D000FFF7B2FDA0EB0A0064284ED8DBF8000050
:1011E000C005F5D5E06801280AD008B1052813D05C
:1011F000286A20F001002862286A20F0040002E03A
:10120000286A40F001002862E06841F2883B98B10A
:10121000FFF792FD82460BE0286A40F00400286246
:10122000EEE700BFFFF788FDA0EB0A0159455AD849
:10123000286A8007F6D50CE0FFF77EFD824605E0C0
:10124000FFF77AFDA0EB0A0159454CD8286A8007C0
:10125000F6D41FB1E86920F08050E861E06988B3F6
:101260006968C1F38101022944D00228C6F8608070
:1012700004D0FFF761FD044638E034E0FFF75CFD81
:10128000074604E0FFF758FDC01B02282BD828684A
:101290008001F7D4206AB0F5803F05D16868A16865
:1012A00020F4003008436860D4E908010843696805
:1012B00021F4741108436860C6F86090FFF73CFDA4
:1012C000044606E025E000BFFFF736FD001B0228BC
:1012D00009D828688001F7D51BE000BFFFF72CFD77
:1012E000001B022802D90320BDE8F88F286880017E
:1012F000F4D40EE00128F7D06868226A00F4803147
:10130000914204D1616A00F47010884201D001203A
:10131000EAE70020E8E70000001002400000424237
:1013200080044242140000200070004010B5401EAE
:10133000B0F1807F01D3012010BD4FF0E024606147
:101340000F21601700F076FA0020A06107202061CD
:10135000002010BD70B5040004D094F841000025B1
:1013600010B106E0012070BD84F84050204600F026
:1013700023F8242084F841002068C16821F400513A
:10138000C160204600F0A6F92068016921F490416F
:1013900001612068416921F02A0141612068C1682A
:1013A00041F40051C1606564202084F8410084F854
:1013B00042006563002070BD70B586B000240094C3
:1013C000019402940394234E0368234902200322CC
:1013D000224DB34219D18B6943F480438B618B69F1
:1013E00003F4804304938B6943F004038B618969A0
:1013F000039201F0040104910102CDE90010694655
:101400002846FFF78BFB28151BE0154EB3421FD172
:10141000CB6943F40033CB61CB6903F4003304930D
:101420008B6943F004038B618969039201F0040125
:1014300004910421CDE9001069462846FFF76EFBB0
:101440000820CDE90004694628460294FFF766FBB0
:1014500006B070BD00380140001002400008014095
:10146000004400402DE9F843044690F841009846B6
:1014700016460D46202802D00220BDE8F88385B12B
:101480007EB100206064212084F84100FFF754FC05
:10149000A6848146E684A0682027B0F5805F02D04C
:1014A00003E00120E9E7206910B12E4600250EE097
:1014B00000260CE08021204600F068F9A8B9C6B1EA
:1014C00016F8010B21684860E08C401EE084E08C37
:1014D0004B464FF00002CDF800800028EAD14FF0D3
:1014E0004001204600F052F940B184F841700320D9
:1014F000C3E735F8020BC0F30800E3E784F8417056
:101500000020BAE7FEE700002DE9F04186B0002494
:101510001C480094019402940394816941F00401F1
:101520008161816901F004010491816941F0080140
:1015300081618069144F00F008000490002240216E
:101540003846FFF7F4FBDFF84480002220214046B4
:10155000FFF7EDFB402001250226CDE90005CDE98E
:10156000024669463846FFF7D9FA2020CDE9000542
:10157000CDE9024669464046FFF7D0FA06B0BDE81D
:10158000F08100000010024000080140000C014002
:101590000C4810B50A4901604FF4E1314160002167
:1015A00081600C22C160C0E904128161C161FFF752
:1015B000D1FE002803D0BDE81040FFF79BBA10BD54
:1015C00000380140180000200C4810B50A4901609D
:1015D0004FF4E1314160002181600C22C160C0E91B
:1015E00004128161C161FFF7B5FE002803D0BDE898
:1015F0001040FFF77FBA10BD00440040600000209B
:10160000FEE7FEE770477047024604480B46024972
:10161000006800F025BE0000D4220008040000206D
:10162000FFF790BB30B58FB028216846FEF7B5FDB7
:1016300014210AA8FEF7B1FD01210804CDE900102C
:101640000024029402250491CDE907504FF4E010E4
:1016500009906846FFF7DAFC08B172B6FEE70F2082
:10166000CDE90A054FF48060CDE90C4002210AA8BB
:101670000E94FFF7E9FB002801D072B6FEE70FB029
:1016800030BD704701680C3151E8002F22F4907290
:1016900041E80023002BF5D10168143151E8002FF7
:1016A00022F0010241E80023002BF5D1016B012952
:1016B00009D101680C3151E8002F22F0100241E8F5
:1016C0000023002BF5D1202180F842100021016376
:1016D0007047000070B5044600680169E26821F4B3
:1016E0004051114301612169A068084361690843C1
:1016F0002168CA6841F20C639A430243CA602068B9
:101700004169A26921F44071114341611E49206879
:10171000884202D1FFF744FC01E0FFF731FC00EB07
:10172000C00101EB0012606864218000B2FBF0F39D
:10173000B3FBF1F36FF018067343B2FBF0F5B2FBA5
:10174000F0F605EB8305322303EB0515B5FBF1F548
:10175000B6FBF1F605F0F00505EB0615B2FBF0F669
:10176000B2FBF0F0B0FBF1F06FF01802504306EB63
:10177000800003EB0010B0FBF1F0216800F00F00D7
:101780002844886070BD0000003801402DE9F8430E
:10179000984617460D460446089E24E0701C22D049
:1017A000FFF7CAFAA0EB0800B0421AD8CEB1206801
:1017B000C168490717D5802D15D0402D13D0016879
:1017C000C94309070FD401680025406800902046EE
:1017D000FFF758FF0820606484F840500120BDE8FE
:1017E000F8830320FBE72068006835EA000004D096
:1017F0000020B842D2D00020F1E70120F9E7FEE74F
:101800007CB50C001D461646014601D0601E00E066
:101810000020CDE90010064B6A462946304600F00C
:10182000EBF8002C02D0009A002111707CBD000062
:10183000FF2000080907090E002804DB00F1E02062
:1018400080F80014704700F00F0000F1E02080F8ED
:10185000141D704702E008C8121F08C1002AFAD1FF
:1018600070477047002001E001C1121F002AFBD120
:10187000704700002DE9FF5F82B00021DDE90430F0
:10188000020DDDF840B0034318D044F61050A2F228
:10189000FF3242431514119801281FD0A5EB0B000D
:1018A000401C5FEA000A4FF000064E4FDFF8389107
:1018B000B046504615D5CAF1000413E01198012432
:1018C0004AA3012801D16FEA0B010298119AC0E9DD
:1018D0000031C0E9024206B0BDE8F09FCBF1000044
:1018E000DFE704460021404A491842EB0450CDE9A5
:1018F000001012E0E00707D032463B46404649461A
:10190000FEF757FD8046894632463B46104619464B
:10191000FEF74FFD06460F466410002CEAD1DDE9C4
:101920000401DDE90023BAF1000F06DAFEF741FDFC
:1019300042464B46FEF73DFD05E0FEF7ACFD424654
:101940004B46FEF7A8FD04460E460022284BFEF744
:1019500029FE03D84FF0FF30014607E00022254B57
:1019600020463146FEF77EFCFEF704FE102409E017
:10197000002C0ADB0A220023FEF743FC039B3032D3
:101980001A55641E50EA0102F2D1641C039AC4F194
:1019900011031444119A012A03D0012208430DD1E6
:1019A0000AE0084304D000204FF0110B119072E7B9
:1019B000A3EB0B056D1E0DE05B4504DD4FF000024F
:1019C00005F1010504E003DA4FF00002A5F101057D
:1019D000002AECD002981199C0E90231C0E9004513
:1019E00079E70000000014400000F03F30000000E4
:1019F0000000F0430000E03F2DE9FF4F95B09A460C
:101A0000884606460025EEE1252877D100242746A2
:101A1000F94A0121039400E0044316F8013F203BFA
:101A200001FA03F01042F7D130782A2811D06FF074
:101A30002F033078A0F13002092A16D8039A44F017
:101A4000020402EB820203EB42021044761C039074
:101A5000EFE758F8042B0392002A03DA504244F4CB
:101A60000054039044F00204761C30782E2816D1DE
:101A700016F8010F44F004042A280DD06FF02F024D
:101A80003078A0F13003092B09D807EB870302EB6C
:101A90004303C718761CF3E758F8047B761C3078AC
:101AA0006C280FD006DC4C2817D068280DD06A2887
:101AB00014D104E0742810D07A280FD10DE044F43A
:101AC00000140AE044F4801401E044F440147278F5
:101AD000824202D104F58014761C761C3078662888
:101AE0000BD013DC582877D009DC002875D04528A6
:101AF000F6D04628F4D047281AD193E118E063289D
:101B000035D0642879D0652812D18BE1702873D044
:101B100008DC6728F1D069286FD06E280DD06F28B7
:101B200006D1ACE073282CD0752874D0782853D017
:101B30005246179990476D1C54E1C4F30250022895
:101B400009D003280DD0D8F8001004280DD00D605E
:101B500008F1040846E1D8F80010EA17C1E900527C
:101B6000F6E7D8F800100D80F2E70D70F0E718F8EE
:101B7000041B8DF8001000208DF80100EB460120B9
:101B800003E058F804BB4FF0FF3061074FF000014D
:101B900002D40DE009F101018946B9420FDA81450D
:101BA000F8DB1BF809100029F4D108E009F1010164
:101BB00089468142FADB1BF809100029F6D1039807
:101BC0005346A0EB090721463846179A00F080FAE1
:101BD000284400EB090507E044E008E10DE01BF8AC
:101BE000010B524617999047B9F10109F7D25346B4
:101BF00021463846179AF2E039E00A21C4F302522E
:101C00004FF0000B0091022A06D058F8040BC117C0
:101C1000032A09D00AE023E008F1070020F00702B8
:101C2000F2E80201904605E000B2C117042A01D192
:101C300040B2C117002906DA0A460021404261EB92
:101C400002012D2202E0220504D52B228DF804206A
:101C5000012203E0E20701D02022F7E7914657E096
:101C60000A2100E010214FF0000B00910BE0102141
:101C70004FF0000B44F004040827009103E0082013
:101C80004FF0000B0090C4F30252022A05D058F81E
:101C9000040B0021032A08D008E008F1070020F017
:101CA0000702F2E80201904603E080B2042A00D164
:101CB000C0B24FF0000922072AD53278702A07D027
:101CC000DDF800C08CF0100C5CEA0B0C05D00EE0C7
:101CD00040228DF80420012208E050EA010306D0DA
:101CE00030238DF804308DF8052002229146009BA8
:101CF00083F0080353EA0B030AD150EA010201D131
:101D0000620705D530228DF804204FF001097F1EAF
:101D10003278582A04D039A20C920CAA02920BE015
:101D20003BA2F9E75B46009AFEF76BFA0C9B9B5CC3
:101D3000029A521E0292137050EA0102F2D10298E6
:101D400004A9081A00F1200B600702D524F480349E
:101D500000E001275F4502DDA7EB0B0000E000205B
:101D600000EB0B01009003984944401A0390E003F4
:101D700006D453462146179A039800F0A9F9054462
:101D8000002706E001A85246C05D179990476D1CD8
:101D90007F1C4F45F6DBE0030CD553462146179ACE
:101DA000039800F095F9054404E030205246179955
:101DB00090476D1C0099481E00900029F5DC08E052
:101DC0000298029952460078491C0291179990474F
:101DD0006D1CBBF10001ABF1010BF1DC5BE100F02C
:101DE00065F90544761C307800287FF40DAE19B0F3
:101DF0002846BDE8F08F0000092801003031323359
:101E00003435363738396162636465660000000036
:101E10003031323334353637383941424344454620
:101E200000000000600700D4062708F1070020F03A
:101E30000700F0E80223804603F0004C5FEA0C0044
:101E400001D097A009E0200501D596A005E0E007A4
:101E500001D095A001E0AFF24C001390307823F050
:101E6000004365280CD006DC452809D046281DD043
:101E700047287FD13BE0662818D067287AD136E022
:101E80000021112F01DB112000E0781CCDE90001B9
:101E900004A90CA8FFF7EEFCDDE90D010C9A4FF048
:101EA000000B07F10109109200914EE04FF0004045
:101EB0000097CDE9011004A90CA8FFF7DBFCDDE9D0
:101EC0000D020C9B0F994FF0000B9146109300925E
:101ED00011B9791C00EB0109B7EB090003D4C0F17B
:101EE000FF3B07F10109A9EB0700019042E0012F38
:101EF00000DA01270021112F01DD112000E0384612
:101F0000CDE9000104A90CA8FFF7B4FCDDE90D013F
:101F10000C9A00914FF0000BB946109221070FD494
:101F2000009A4A4503DA914601E0A9F10109B9F1A5
:101F3000010F05DD109AA9F10101515C3029F4D09F
:101F4000B84202DA10F1040F03DA0121CDE90110E1
:101F500010E0002803DC8344A9EB000102E0411CEF
:101F6000494500DD8946A0EB0B00401C01904FF075
:101F700000400290200705D40198484502DB4FF04D
:101F8000FF30019000208DF84B0002980DF14B07B7
:101F9000B0F1004F25D002200C902B200D9002981C
:101FA00000280CDA404202902D200D9007E00A2113
:101FB0000298FEF710F93031029007F8011D0C99D4
:101FC000481E0C900029F2DC02980028EFD1791EFF
:101FD0000D980870307800F0200040F0450007F8B8
:101FE000020D11A8C01BC01D02901398007800B10B
:101FF000012000EB0901019801EBE0710298014416
:102000000398401A401E0390E00306D4534621462D
:10201000179A039800F05CF805441398007818B1FB
:102020005246179990476D1CE00323D5534621462D
:10203000179A039800F04CF805441BE0BBF1000F21
:1020400007DB0098584504DD1098179910F80B002D
:1020500001E0179930205246904701980BF1010B8F
:10206000401E05F10105019004D12E20524617991A
:1020700090476D1CB9F10001A9F10109DEDC05E012
:1020800017F8010B5246179990476D1C0299481E8C
:1020900002900029F4DC53462146179A03989EE6E5
:1020A0002D0000002B000000200000002DE9F04171
:1020B000044600251E461746880404D405E0394628
:1020C0002020B0476D1C641EF9D52846BDE8F0817C
:1020D0002DE9F041044600251E469046C80301D56F
:1020E000302700E02027880404D505E04146384623
:1020F000B0476D1C641EF9D52846BDE8F0814A68DA
:10210000002A06D00A68531C0B6010704868401EF5
:102110004860704710B50446FEF72CFF0549B0FB38
:10212000F1F16143002001E000BF401C8842FBD375
:1021300010BD000000127A00FEF70CFEFFF772FAE5
:10214000FFF7E2F9FFF724FAFFF73EFA1DA1214855
:1021500000F086F8FEF7FEFA1F4D58B11FA11D488A
:1021600000F07EF820212846FEF7D9FD6420FEF716
:10217000C3FCF7E721A1174800F072F82448FEF7E6
:1021800089FB244C4FF47A762249491C481EFEF7FD
:102190003BFB58B120A10F4800F062F820212846EF
:1021A000FEF7BDFD3046FEF7A7FCEDE76378227829
:1021B00020A1084800F054F861782078FFF724FA4D
:1021C000ECE7000053797374656D20426F6F74659E
:1021D0006421000018000020000C014044485431E4
:1021E0003120496E697469616C697A6174696F6ED6
:1021F000204661696C656421000000004448543148
:102200003120496E697469616C697A65642E0000D9
:1022100060000020000000204661696C6564207445
:102220006F20726561642066726F6D20444854317E
:10223000312E000053656E736F7220526561643AEF
:102240002054656D70657261747572653D256443D7
:102250002C2048756D69646974793D2564252500D5
:102260000FB430B5C1B004464FF4807529466846B6
:10227000FDF793FF46AB29466846459AFFF7C0FA3B
:1022800008A16846FDF794FF6846FDF79DFF82B2FE
:102290004FF0FF3369462046FFF7E4F841B030BC09
:1022A0005DF814FB0D0A0000010202030405060795
:1022B00008090A0B0C0D0E0F1010000000000000A2
:1022C00000000102030406070809000000000102E3
:1022D0000304000041542B4D5154545055423D309D
:1022E0002C22246F632F646576696365732F3639FA
:1022F00036373433346232356464323136386236DC
:102300006666656162645F6A6975687573695F3086
:102310005F305F323032363031313530372F7379BC
:10232000732F70726F706572746965732F72657048
:102330006F7274222C227B5C2273657276696365EE
:10234000735C223A5B7B5C22736572766963655FBE
:1023500069645C223A5C2273685C225C2C5C2270AB
:10236000726F706572746965735C223A7B5C227768
:10237000656E64755C223A2025645C2C5C2273686F
:102380006964755C223A2025647D7D5D7D222C3058
:102390002C300D0A00000000303465626438306370
:1023A00066303130626636623630316665623931A8
:1023B0003761393537613162643365616231336366
:1023C0003931303537646665393765343966386197
:1023D000623865386366336400000000FC2300083F
:1023E0000000002018000000541800081424000801
:1023F000180000209004000064180008000000008D
:1024000000000000010000001000000000000000BB
:0424100000127A003C
:0400000508000131BD
:00000001FF
